:1000000071C000008EC000008CC000008AC00000DB
:1000100088C0000086C0000084C0000082C00000CC
:1000200080C000007EC000007CC000007AC00000DC
:1000300078C0000076C0000074C0000072C00000EC
:1000400070C000006EC000006CC000006AC00000FC
:1000500068C0000066C0000064C0000062C000000C
:1000600060C000005EC000005CC000005AC000001C
:1000700058C0000056C0000054C0000052C000002C
:1000800050C000004EC000004CC000004AC000003C
:1000900048C0000046C0000044C0000042C000004C
:1000A00040C000003EC000003CC000003AC000005C
:1000B00038C0000036C0000034C0000032C000006C
:1000C00030C000002EC000002CC000002AC000007C
:1000D00028C0000026C0000024C0000022C000008C
:1000E00020C0000011241FBECFEFD1E2DEBFCDBF84
:1000F00000E00CBF14E0A0E0B2E0E4EBFFE000E0C1
:100100000BBF02C007900D92AC3AB107D9F724E0BB
:10011000ACEAB4E001C01D92A23BB207E1F7D1D333
:1001200047C76ECFCF93DF93CDB7DEB727970FB614
:10013000F894DEBF0FBECDBF27E0EEE0F2E0CE01C7
:100140000196DC0101900D922A95E1F79F938F9320
:100150008FE592E09F938F937ED48DE04CD48AE01C
:100160004AD40F900F900F900F9027960FB6F894E7
:10017000DEBF0FBECDBFDF91CF910895CF93DF9348
:10018000CDB7DEB72B970FB6F894DEBF0FBECDBF4D
:100190009BE0EAE1F2E09E012F5F3F4FD901019021
:1001A0000D929A95E1F71F928F933F932F9385E1DC
:1001B00092E09F938F934FD48DE01DD48AE01BD49F
:1001C0000F900F900F900F900F900F902B960FB6EF
:1001D000F894DEBF0FBECDBFDF91CF910895CF93CE
:1001E000DF93CDB7DEB72A970FB6F894DEBF0FBE08
:1001F000CDBF4AE0E1E3F2E09E012F5F3F4FD9011E
:1002000001900D924A95E1F77F936F939F938F939F
:100210003F932F9385E292E09F938F931CD48DE0C0
:10022000EAD38AE0E8D30FB6F894DEBF0FBECDBFA5
:100230002A960FB6F894DEBF0FBECDBFDF91CF91E7
:100240000895CF93DF93CDB7DEB763970FB6F894D9
:10025000DEBF0FBECDBF43E1E2E6F2E09E012F5FBD
:100260003F4FD90101900D924A95E1F77F936F932B
:100270009F938F933F932F9388E592E09F938F9363
:10028000EAD38DE0B8D38AE0B6D30FB6F894DEBFD8
:100290000FBECDBF63960FB6F894DEBF0FBECDBFC5
:1002A000DF91CF9108952F923F924F925F926F927C
:1002B0007F928F929F92AF92BF92CF92DF92EF92F6
:1002C000FF920F931F93CF93DF93CDB7DEB7CD553A
:1002D000D1400FB6F894DEBF0FBECDBF282E392E09
:1002E000C05CDE4F6883C054D140CF5BDE4F788363
:1002F000C154D140CE5BDE4F4883C254D140CD5B68
:10030000DE4F5883C354D140CC5BDE4F2883C454A6
:10031000D140CB5BDE4F3883C554D140402E512EA7
:10032000CA5BDE4FE882C654D140C95BDE4FF8821B
:10033000C754D140CD58DE4F2881C357D140C05B50
:10034000DE4F2883C055D140CC58DE4F3881C4578A
:10035000D140CF5ADE4F3883C155D140CB58DE4F04
:100360004881C557D140CE5ADE4F4883C255D1404F
:10037000CA58DE4F5881C657D140CD5ADE4F5883F8
:10038000C355D140C958DE4F8881C757D140CC5A98
:10039000DE4F8883C455D140C858DE4F9881C85776
:1003A000D140CB5ADE4F9883C555D140C758DE4F58
:1003B000A881C957D140CA5ADE4FA883C655D1403B
:1003C000C658DE4FB881CA57D140C95ADE4FB883EC
:1003D000C755D140C558DE4F2881CB57D140C85AA8
:1003E000DE4F2883C855D140C458DE4F3881CC57E2
:1003F000D140C75ADE4F3883C955D140C358DE4F6C
:100400004881CD57D140C65ADE4F4883CA55D140A6
:10041000C258DE4F5881CE57D140C55ADE4F58835F
:10042000CB55D14027E031E0EFE2F3E0CE01019679
:10043000DC0101900D9221503040D9F73E01A8EF28
:100440006A1AAEEF7A0A27E2E7EFF2E0D3010190F1
:100450000D922A95E1F77E01B1EDEB1ABEEFFB0A92
:1004600021E1EEE1F3E0D70101900D922A95E1F749
:10047000CE5BDE4FE881C254D140CD5BDE4FF881C8
:10048000C354D140DF010D900020E9F711979D0181
:100490002E1B3F0BC85BDE4F39832883C854D140E5
:1004A000C05CDE4FE881C054D140CF5BDE4FF881A5
:1004B000C154D140DF010D900020E9F71197AD0143
:1004C0004E1B5F0BC65BDE4F59834883CA54D14035
:1004D000E22DF32DDF010D900020E9F711979D012A
:1004E0002E1B3F0BC45BDE4F39832883CC54D14095
:1004F000CC5BDE4FE881C454D140CB5BDE4FF8814A
:10050000C554D140DF010D900020E9F71197AD01EE
:100510004E1B5F0BC45ADE4F59834883CC55D140E4
:10052000202F312FF90101900020E9F73197E21BCC
:10053000F30BCA5BDE4F0881C654D140C95BDE4F66
:100540001881C754D140D8010D900020E9F7BD01B2
:1005500061507109601B710B0C2D1D2DD8010D9080
:100560000020E9F7AD0141505109401B510BD30167
:100570000D900020E9F78D0101501109980126190D
:100580003709C25BDE4F39832883CE54D140D7016F
:100590000D900020E9F78D01015011090E191F0976
:1005A000DC010D900020E9F79D0121503109281B45
:1005B000390BCB01840F951F8E0F9F1FC45ADE4F3E
:1005C000A881B981CC55D1408A0F9B1F840F951FFC
:1005D000860F971F8E0F9F1F8A0F9B1FC85BDE4FD2
:1005E000A881B981C854D1408A0F9B1FC65BDE4FDA
:1005F000A881B981CA54D1408A0F9B1FC45BDE4FCA
:10060000A881B981CC54D1408A0F9B1FC45ADE4FB8
:10061000A881B981CC55D1408A0F9B1F8E0F9F1F97
:10062000860F971F840F951FC25BDE4F488159814B
:10063000CE54D140840F951F080F191F200F311F72
:10064000265131093F932F9385E792E09F938F9333
:1006500081E892E09F938F93FED18DE0CCD18AE028
:10066000CAD15FE38DE093E0515080409040E1F7C4
:1006700000C00000C55ADE4FA881CB55D140AF93D2
:10068000C65ADE4FB881CA55D140BF93C75ADE4F14
:100690002881C955D1402F93C85ADE4F3881C8559B
:1006A000D1403F93C95ADE4F4881C755D1404F933F
:1006B000CA5ADE4F5881C655D1405F93CB5ADE4FA0
:1006C0008881C555D1408F93CC5ADE4F9881C4554F
:1006D000D1409F93CD5ADE4FA881C355D140AF93EF
:1006E000CE5ADE4FB881C255D140BF93CF5ADE4FAC
:1006F0002881C155D1402F93C05BDE4F3881C05552
:10070000D1403F939F928F92BF92AF92DF92CF9250
:10071000C95BDE4F4881C754D1404F93CA5BDE4F5F
:100720005881C654D1405F935F924F92CB5BDE4FAE
:100730008881C554D1408F93CC5BDE4F9881C454DF
:10074000D1409F93CD5BDE4FA881C354D140AF937E
:10075000CE5BDE4FB881C254D140BF93CF5BDE4F3A
:100760002881C154D1402F93C05CDE4F3881C054E2
:10077000D1403F933F922F928FE293E09F938F93CC
:100780006AD10FB6F894DEBF0FBECDBF8DE033D176
:100790008AE031D17F926F920FE512E01F930F93A1
:1007A0005AD18DE028D18AE026D1FF92EF921F9393
:1007B0000F9351D18DE01FD18AE01DD18DE01BD167
:1007C0008AE019D10FB6F894DEBF0FBECDBFC35A71
:1007D000DE4F0FB6F894DEBF0FBECDBFDF91CF91D5
:1007E0001F910F91FF90EF90DF90CF90BF90AF904F
:1007F0009F908F907F906F905F904F903F902F9041
:100800000895EF92FF920F931F93CF93DF9361159B
:10081000710539F1FC01EC01C60FD71F80E090E0B3
:10082000DC0121917C018D01E20EF11C011D111DE5
:10083000A8019701A1E0B4E0F5D08B019C01689478
:1008400015F836952795179507951694D1F7DC017D
:10085000CB0180279127A227B327EC17FD0709F7C3
:1008600003C080E090E0DC01AC01BD01440F551FE6
:10087000661F771F440F551F661F771F440F551FB4
:10088000661F771F840F951FA61FB71FAC01BD0100
:10089000032E3BE076956795579547953A95D1F7A6
:1008A000302D9A01AB01282739274A275B27A1E081
:1008B000B0E8B8D0DF91CF911F910F91FF90EF90EA
:1008C000089588E076D0ECEAF4E080E092E093834B
:1008D0008283918380832FEF37EA81E62150304075
:1008E0008040E1F700C0000064E170E086E394E03E
:1008F00088DF9F938F937F936F938DE494E09F9312
:100900008F93A9D00FDC9FEF23E234EF915020406A
:100910003040E1F700C0000081E330DC8FEF97EA60
:1009200021E6815090402040E1F700C0000061E5E1
:1009300074E080E694E053DC3AEA86EE96E921E042
:100940003150804090402040D9F7000060E774E0CB
:100950008DEF92E076DC3FEF87EA91E63150804000
:100960009040E1F700C0000083E794E09F938F93ED
:100970009F938F939F938F939F938F939F938F9327
:100980009F938F934C015C016C017C018C019C0155
:1009900048E754E067E874E087EA94E084DC2DB728
:1009A0003EB72E5E3F4F0FB6F8943EBF0FBE2DBF31
:1009B000FFCF1092C5008093C400E2ECF0E080818C
:1009C00086608083E1ECF0E0808188618083089517
:1009D000CF93C82F8A3021F460E070E08DE0F8DF1B
:1009E000E0ECF0E0908195FFFDCFC093C60080E081
:1009F00090E0CF910895E0ECF0E0908195FFFDCF7D
:100A00008093C6000895CF93BC01E0ECF0E09081A4
:100A10009923ECF7C091C6008C2FDADF8C2F90E081
:100A2000CF91089509D0A59F900DB49F900DA49FDC
:100A3000800D911D11240895A29FB001B39FC001A4
:100A4000A39F700D811D1124911DB29F700D811DFA
:100A50001124911D0895CF93DF93CDB7DEB7AE017A
:100A60004A5F5F4FFA0161917191AF018091AE04CD
:100A70009091AF0403D0DF91CF9108952F923F92D0
:100A80004F925F926F927F928F929F92AF92BF929E
:100A9000CF92DF92EF92FF920F931F93CF93DF934A
:100AA000CDB7DEB72C970FB6F894DEBF0FBECDBF23
:100AB0007C016B018A01FC0117821682838181FF10
:100AC000B0C1CE0101964C01F7019381F60193FD6F
:100AD000859193FF81916F01882309F49EC185322E
:100AE00039F493FD859193FF81916F01853221F453
:100AF000B70190E0C7D1E8CF512C312C20E0203253
:100B0000A0F48B3269F030F4803259F0833269F40A
:100B100020612CC08D3239F0803339F4216026C039
:100B20002260246023C0286021C027FD27C030ED4B
:100B3000380F3A3078F426FF06C0FAE05F9E300D99
:100B40001124532E13C08AE0389E300D1124332E09
:100B500020620CC08E3221F426FD5FC1206406C0E5
:100B60008C3611F4206802C0883641F4F60193FDFA
:100B7000859193FF81916F018111C1CF982F9F7D46
:100B80009554933028F40C5F1F4FFFE3F9830DC099
:100B9000833631F0833771F0833509F057C021C0B7
:100BA000F801808189830E5F1F4F44244394512CA8
:100BB000540114C03801F2E06F0E711CF801A080DE
:100BC000B18026FF03C0652D70E002C06FEF7FEF9C
:100BD000C5012C874CD12C0183012C852F77222E27
:100BE00016C03801F2E06F0E711CF801A080B180D0
:100BF00026FF03C0652D70E002C06FEF7FEFC501D7
:100C00002C872AD12C012C852068222E830123FCDD
:100C100019C0832D90E048165906A0F4B70180E270
:100C200090E030D13A94F5CFF50127FC859127FE6D
:100C300081915F01B70190E025D131103A94F1E044
:100C40004F1A51084114510479F7DEC0843611F06F
:100C5000893631F5F80127FF07C0608171818281F3
:100C600093810C5F1F4F08C060817181072E000CBB
:100C7000880B990B0E5F1F4F2F76722E97FF09C0BE
:100C800090958095709561957F4F8F4F9F4F20680D
:100C9000722E2AE030E0A4012DD1A82EA81843C05E
:100CA000853729F42F7EB22E2AE030E025C0F22FBE
:100CB000F97FBF2E8F36C1F018F4883579F0ADC0BA
:100CC000803719F0883721F0A8C02F2F2061B22E6D
:100CD000B4FE0DC08B2D8460B82E09C024FF0AC05D
:100CE0009F2F9660B92E06C028E030E005C020E1B5
:100CF00030E002C020E132E0F801B7FE07C06081B9
:100D00007181828193810C5F1F4F06C06081718168
:100D100080E090E00E5F1F4FA401ECD0A82EA81831
:100D2000FB2DFF777F2E76FE0BC0372D3E7FA5145F
:100D300050F474FE0AC072FC08C0372D3E7E05C018
:100D4000BA2C372D03C0BA2C01C0B52C34FF0DC00E
:100D5000FE01EA0DF11D8081803311F4397E09C056
:100D600032FF06C0B394B39404C0832F867809F091
:100D7000B39433FD12C030FF06C05A2CB31418F4DC
:100D8000530C5B18B32CB31460F4B70180E290E00D
:100D90003C8778D0B3943C85F6CFB31410F43B185D
:100DA00001C0312C34FF11C0B70180E390E03C87D3
:100DB00069D03C8532FF16C031FD03C088E790E062
:100DC00002C088E590E0B7010CC0832F867851F00F
:100DD00031FF02C08BE201C080E237FD8DE2B70136
:100DE00090E050D0A51430F4B70180E390E04AD0F1
:100DF0005A94F8CFAA94F401EA0DF11D8081B7014D
:100E000090E040D0A110F6CF332009F45DCEB701B9
:100E100080E290E037D03A94F7CFF701868197814E
:100E200002C08FEF9FEF2C960FB6F894DEBF0FBE77
:100E3000CDBFDF91CF911F910F91FF90EF90DF9089
:100E4000CF90BF90AF909F908F907F906F905F906A
:100E50004F903F902F900895FC0105906150704095
:100E60000110D8F7809590958E0F9F1F0895FC0173
:100E70006150704001900110D8F7809590958E0FC9
:100E80009F1F08950F931F93CF93DF93FB0123813F
:100E900021FD03C08FEF9FEF28C022FF16C04681BF
:100EA0005781248135814217530744F4A081B181D1
:100EB0009D012F5F3F4F318320838C9326813781A3
:100EC0002F5F3F4F3783268310C0EB01092F182F68
:100ED0000084F185E02D1995892BE1F68E819F81A3
:100EE00001969F838E83812F902FDF91CF911F9149
:100EF0000F910895FA01AA27283051F1203181F18C
:100F0000E8946F936E7F6E5F7F4F8F4F9F4FAF4F11
:100F1000B1E03ED0B4E03CD0670F781F891F9A1F24
:100F2000A11D680F791F8A1F911DA11D6A0F711DD8
:100F3000811D911DA11D20D009F468943F912AE0E4
:100F4000269F11243019305D3193DEF6CF010895CC
:100F5000462F4770405D4193B3E00FD0C9F7F6CFFD
:100F6000462F4F70405D4A3318F0495D31FD4052C5
:100F7000419302D0A9F7EACFB4E0A695979587955B
:100F800077956795BA95C9F700976105710508953A
:100F90009B01AC010A2E06945795479537952795E6
:100FA000BA95C9F7620F731F841F951FA01D08957E
:040FB000F894FFCFE3
:100FB4000000000300000000E804030500004154A1
:100FC4002B52535400257325630041542B43574D32
:100FD4004F44453D002573222573222C222573227C
:100FE4000041542B43574A41503D0041542B524534
:100FF40053544F52450041542B43574C41500041E8
:10100400542B4349465352002573222573222C2521
:10101400730041542B43495053544152543D22547C
:101024004350222C0041542B43495053454E443DD8
:10103400002573256400504F5354202F7573657237
:101044005F616E645F6465766963655F7369676E2B
:1010540075703F6E616D653D257326757365726E9F
:10106400616D653D25732670617373776F72643D9E
:101074002573267374617475733D2573266C6F63D1
:101084006174696F6E3D257326646576696365696D
:10109400643D257326656D61696C3D257320485454
:1010A40054502F312E3100486F73743A2061746D9F
:1010B400656761323536302D657370383236362EB9
:1010C4006865726F6B756170702E636F6D00557318
:1010D40065722D4167656E743A20746573740050AF
:1010E4004F5354202F7570646174655F646576692D
:1010F40063655F706172616D3F757365726E616D7A
:10110400653D25732664657669636569643D257369
:1011140026656D61696C3D25732664657669636532
:10112400706172616D313D2573266465766963650E
:10113400706172616D323D257326646576696365FD
:10114400706172616D333D257326646576696365EC
:10115400706172616D343D257326646576696365DB
:10116400706172616D353D257326646576696365CA
:10117400706172616D363D257326646576696365B9
:10118400706172616D373D257326646576696365A8
:10119400706172616D383D25732664657669636597
:1011A400706172616D393D25732664657669636586
:1011B400706172616D31303D2573266465766963B3
:1011C40065706172616D31313D25732664657669A0
:1011D4006365706172616D31323D257320485454EA
:1011E400502F312E3100616E696C61646967757AC4
:1011F400656C40676D61696C2E636F6D0025640AD0
:10120400005365796461323531356773746C2E002F
:1012140061646967757A656C66616D696C6965009E
:101224003830007472756500676C636E40676D6179
:10123400696C2E636F6D00313233323133326A6B35
:101244006C6A2D3132336B6A3132332D73646632FA
:0C12540031332D61736400676C636E0021
:00000001FF
